S01200004D7950726F6A656374302E7372656345
S1130000E0260020510700004D0700004D070000C6
S113001000000000000000000000000000000000DC
S11300200000000000000000000000004D07000078
S113003000000000000000004D0700004D07000014
S11300402D0600000D060000CD0500004D07000040
S11300506D0500004D070000ED0500004D06000091
S11300604D0700000D0500002D0500004D070000A0
S11300704D07000000000000000000004D070000D4
S11300804D0700004D0700004D0500004D0700001E
S11300904D07000000000000000000004D070000B4
S11300A08D050000AD0500004D0700004D07000060
S11300B00000000010B5064C2378002B07D1054B37
S11300C0002B02D0044800E000BF0123237010BDC0
S11300D02000002000000000E034000008B5084BB8
S11300E0002B03D00748084900E000BF0748036815
S11300F0002B00D108BD064B002BFBD09847F9E735
S113010000000000E034000024000020E03400007F
S11301100000000038B58025ED000020291C0022D5
S1130120034CA0470020291C0122A04738BDC0462B
S1130130DD120000F0B54F4680B400208021C900D4
S11301400022284B9847284D10239946A9442C1C7B
S1130150244E264F0020802149000022B047002071
S1130160802149000122B0470020B847830502D509
S11301700123237001E00023237001344C45E9D1AD
S113018008230024184E0820591E725CC31A9A4092
S1130190A318DCB20B1EF7D11DE0E87B88401218CF
S11301A0D2B20131013D0829F7D1114B5A709C702C
S11301B023021A430F4B1A8012B2002A05DA0020D8
S11301C008310022074B984708E000201021012243
S11301D0044B984702E000220021DEE704BC91466C
S11301E0F0BDC046DD1200001C0600200113000013
S11301F0480600206806002070B500201021022265
S1130200114DA847002010210022104EB0470420B1
S11302100F49104CA047002020210222A8470020AB
S113022020210022B04705200B49A047002040218F
S11302300122A847002006210022084B98470620E7
S11302400749A04770BDC04639120000DD12000006
S113025003000400C513000003000500451300005B
S11302600300060008B503200449054B9847054BD5
S1130270054A5A80054A5A8008BDC0460008004213
S11302808D110000000C00401440000013430000D6
S113029008B5044B984704480449054B9847054B57
S11302A0984708BD65020000FC05002000080042D4
S11302B0FD280000F901000010B500200321034CC3
S11302C0A04701200249A04710BDC046C513000045
S11302D00300010008B503200449054B9847054B6A
S11302E0054A5A80054A5A8008BDC046000C00429F
S11302F08D110000000C0040154000001343000065
S113030008B5044B984704480449054B9847054BE6
S1130310984708BDD502000010060020000C0042DA
S1130320292D0000B902000008B5034A034B5A8086
S1130330034B984708BDC04605400000000C004030
S11303405528000008B503200449054B9847054B80
S1130350054A5A80054A5A8008BDC04600440042F6
S11303608D110000000C00401F40000020400000E0
S113037008B5034B984703480349044B984708BD05
S113038045030000B4050020004400428527000016
S113039008B503200349044B9847044A044B5A8088
S11303A008BDC046004800428D11000021400000F5
S11303B0000C004008B5034B984703480349044B1D
S11303C0984708BD91030000D4050020004800426E
S11303D0D527000008B501200349044B9847044A77
S11303E0044B5A8008BDC046001000408D11000027
S11303F003400000000C004008B5064B984701205C
S113040005494C22054B98470548064B0360064BAB
S1130410984708BDD50300000C320000C530000029
S1130420D0050020001000401D27000038B5044D01
S11304300020291C034CA0470220291CA04738BDDA
S1130440004800418D11000008B5024B9847024B4B
S1130450984708BD2D04000081280000F8B58024C9
S113046064040020211C0222104FB8470020211CE4
S113047000220F4EB0470020182100220D4DA8473E
S113048018200D490D4CA047002080218904022228
S1130490B8470020802189040022B0470020192198
S11304A00022A84719200649A047F8BD39120000C8
S11304B0DD1200004513000006001800C5130000FB
S11304C00600190038B5064D0220291C054CA0472A
S11304D00020291CA047044A044B5A8038BDC0465A
S11304E0005000418D11000006400000000C004047
S11304F008B5034B9847034B9847034B984708BDEF
S1130500C5040000CD2F00005D04000008B5054BB4
S11305105B6A002B03D058681B68984701E0024BC4
S1130520984708BD6C0600207D09000008B5054BFE
S11305309B6A002B03D058681B68984701E0024B64
S1130540984708BD6C0600207D09000008B5054BDE
S11305509B6C002B03D058681B68984701E0024B42
S1130560984708BD6C0600207D09000008B5054BBE
S11305701B69002B03D058681B68984701E0024BA5
S1130580984708BD6C0600207D09000008B5054B9E
S11305901B6E002B03D058681B68984701E0024B80
S11305A0984708BD6C0600207D09000008B5054B7E
S11305B05B6E002B03D058681B68984701E0024B20
S11305C0984708BD6C0600207D09000008B5054B5E
S11305D09B68002B03D058681B68984701E0024BC6
S11305E0984708BD6C0600207D09000008B5054B3E
S11305F09B69002B03D058681B68984701E0024BA5
S1130600984708BD6C0600207D09000008B5054B1D
S11306105B68002B03D058681B68984701E0024BC5
S1130620984708BD6C0600207D09000008B5054BFD
S11306301B68002B03D058681B68984701E0024BE5
S1130640984708BD6C0600207D09000008B5054BDD
S1130650DB69002B03D058681B68984701E0024B04
S1130660984708BD6C0600207D09000070B50E4C4B
S11306700123A3600D4AE26023740222E2610C4A62
S113068022622422A3540B4D281C211C0A4EB0477D
S1130690211C1431281CB047281C0121074B984702
S11306A0281C074B984770BD3C0000201501000032
S11306B0350100004C060020AD2B0000812B00000A
S11306C0452B000010B5114B9847114B9847114B1F
S11306D09847114C0320211C104B9847104A114B8A
S11306E05A80114B9847021C1048211C104B984704
S11306F0104B9847104B9847104B9847104B98470E
S1130700104B9847104B984710BDC0468109000014
S11307109102000001030000002C00428D11000032
S11307201B400000000C0040711900004C06002022
S1130730052B00002903000071030000B50300002D
S1130740F903000049040000F1040000FEE7C0467C
S113075070B52E4B2E4A9A4203D02E4B2B4A9A4206
S113076004D32D4B2D4A9A4210D31EE02C4A294B18
S113077003339B1A9B0801339B000022234824491E
S11307808C58845004329A42FAD1EAE7254A224B23
S113079003339B1A9B0801339B0000221F4800214E
S11307A01418216004329A42FAD11F4AFF211F4BC8
S11307B08B439360FD3990235B001D4AD1501D4843
S11307C0C3780324A34302221343C370C3780C26C3
S11307D0B34308210B43C370174B987B3025A843C0
S11307E0051C202028439873987BB04301439973D8
S11307F0997BA1430A439A73104A516880230B439F
S113080053600F4B98470F4B9847FEE700000020BA
S1130810E034000020000020DC060020200000203E
S1130820040000202400002000ED00E0000000008F
S11308300070004100500041004800410040004168
S11308408D3100004130000010B5041C1B4BC01852
S113085043425841C0B21A4990225200194B98475A
S1130860637ADB09FCD1637ADB09FCD123789B072B
S113087021D4637ADB09FCD122780133134323703A
S1130880637ADB09FCD1637ADB09FCD1C023DB008A
S11308902361637ADB09FCD1C023DB00636100239D
S11308A02022A3540132A3546380637ADB09FCD170
S11308B02370002001E01120404210BD00BCFFBDA8
S11308C028320000C530000038B5051C0C1C431E3E
S11308D09841C0B204496B22044B98472C60201CF9
S11308E0034B984738BDC04628320000C53000008D
S11308F0490800001F2318401E3B8340181C802316
S1130900014AD0507047C04600E100E01F23184060
S11309101E3B8340181C80235B00014AD050704763
S113092000E100E01F2318401E3B8340181CC02335
S11309305B00014AD050704700E100E01F231840DB
S11309401E3B8340181C014B1860704700E100E017
S113095038B5041C0D1C00201B23A3424041C0B227
S113096003498C22034B9847A400034BE55038BD40
S11309704C320000C53000006C060020FEE7C04683
S113098000B583B001A8094B9847094B5A685A60CF
S113099001A8084B9847084B9847084B9847084BC1
S11309A09847084B984703B000BDC046B9270000DC
S11309B000400041C927000019120000A1170000DF
S11309C029100000F517000010B5041C134BC018C3
S11309D043425841C0B212497E22124B9847E379F0
S11309E0DB09FCD1E379DB09FCD123789B0712D422
S11309F0E379DB09FCD12278013313432370E379D3
S1130A00DB09FCD1A37001336370E379DB09FCD10A
S1130A102370002001E00420404210BD00B8FFBD57
S1130A2074320000C530000038B5051C0C1C431E90
S1130A309841C0B204495622044B98472C60201CAC
S1130A40034B984738BDC04674320000C5300000DF
S1130A50C9090000481E814148427047F0B54F461D
S1130A604646C0B483B0051C03689C6868462D4F95
S1130A70B847248CA4B268462B4EB0470F231C40C1
S1130A80E3001B1B9B00294A984690442201284BF3
S1130A909B185B8827498A1852889B1A42465360E0
S1130AA02B689B68994601A8B8473F234A46D4540B
S1130AB001A8B0472B689B684E229A5CD20714D5D4
S1130AC01A49E3001A1B92008A18062040429061DA
S1130AD02A68906801264E2286541C1BA4000C1917
S1130AE0E368281C4146984716E04E229B5C9B070E
S1130AF012D50E49E3001A1B92008A180020906157
S1130B002A68906802264E2286541C1BA4000C19E5
S1130B10A368281C4146984703B00CBC90469946EC
S1130B20F0BDC046B9270000C92700002C060020EC
S1130B30A0050020C0050020F0B5474680B48AB067
S1130B40051C431E9841C0B233497522334B984764
S1130B50334B2B601B7B002B59D1314B0122904628
S1130B601A73304A9A60304A1A605D602B689C6838
S1130B7006A82E4FB847238802229343238006A851
S1130B802B4EB04707A8B8472388042293432380F9
S1130B9007A8B04708A8B8474022A15C01230B432B
S1130BA0A35408A8B04701A8B847224B636301A81F
S1130BB0B04702A8B847204BA36302A8B04703A8D4
S1130BC0B847F0231B01238003A8B04704A8B84703
S1130BD04346637304A8B04705A8B847002363617C
S1130BE005A8B04709A8B8472288022313432380E5
S1130BF009A8B0470620114B98470620104B984788
S1130C00296806200F4B984706200F4B9847002071
S1130C100AB004BC9046F0BDBC320000C5300000F0
S1130C2064000020004800415D0A0000B92700006C
S1130C30C9270000A0050020C0050020F508000019
S1130C4025090000510900003D090000F8B55F4680
S1130C5056464D464446F0B48846141C431E9841FB
S1130C60C0B24549C222454B9847454B18680028F5
S1130C7072D0444B196901250D4008D00023012787
S1130C801AE01E1C3A1C9A40114215D101E00122BF
S1130C900026F300981B80003B4FBC466044474647
S1130CA038609B1B9B0060461D503601374BF6187D
S1130CB00A43344B1A6105E00133DBB21D1E854241
S1130CC0DFD30026012C2DD0621E002A2CD0304BFD
S1130CD01F682B4B1B6898469F4231D0294B5C6997
S1130CE04346FB1A9B4600210023012084462648E4
S1130CF0814660469840044207D14144CF00791AA6
S1130D0089004944F160F66804430133DBB2191EDB
S1130D10914202D31B4A546107E05B45E9D3194A67
S1130D20546102E0002300E00023154A1168A9423F
S1130D3009D0174A1268521A934207D0002014E0CF
S1130D401C20404211E01C2040420EE01C20404286
S1130D500BE01C20404208E0012CFAD0621E051C66
S1130D600026002AB3D11C2040423CBC9046994640
S1130D70A246AB46F8BDC046BC320000C5300000F8
S1130D8010000020640000202C060020A005002094
S1130D900C000020F0B55F465646C0B48BB00D1C65
S1130DA00092019384680E68431E9841C0B235498D
S1130DB08A225200344B98472D69AA46F5B203A8FB
S1130DC0324FB8473F23E55403A8314DA84704A840
S1130DD0B84740239B46E35C022293435A46A354FC
S1130DE004A8A84705A8B8475B46E25C3F3B134309
S1130DF05A46A35405A8A84706A8B8472369012260
S1130E00B2409343236106A8A84753465B789B46A8
S1130E1007A8B847626C60218A435B465B010B40BC
S1130E201343636407A8A84753469B789A4608A8C7
S1130E30B847626C174B1A4053469B05C0210904FE
S1130E400B401343636408A8A847F3009B1B9B0053
S1130E50114AD3185B69009801999847061C09A8A0
S1130E60B847606C0D4B03403002FC2292011040E5
S1130E701843606409A8A84700200BB00CBC924634
S1130E809B46F0BDBC320000C5300000B92700000D
S1130E90C9270000FFFF3FFF2C060020FFC0FFFF13
S1130EA0014B03607047C046550A0000014B0360C4
S1130EB07047C04614000020F0B557464E464546DC
S1130EC0E0B482B02A4B1A690192019A1A61294B43
S1130ED01868431E9841C0B2274987225200274B05
S1130EE09847019B002B3DD0254B9A46FF24254D66
S1130EF0012698461E4B99460198D0470138C0B246
S1130F0043B201331DD124E08B185B10DFB22340C0
S1130F10DB005B5D834208D0984202DD7A1CD2B2CA
S1130F2001E0791EC9B29142EED2019B321C82408B
S1130F30934301930198C0470138C0B243B20133CF
S1130F4007D040B2FF28F0D0231C00270021002244
S1130F50E2E74B461B690193019B4A461361019BDF
S1130F60002BC9D102B01CBC90469946A246F0BDE4
S1130F70001800407C000020EC320000C530000066
S1130F8039310000E432000038B5204A5378DB09D7
S1130F90FCD11E4A5378DB09FCD11C4B1B789B0700
S1130FA031D41A4A5378DB09FCD1184A1178013339
S1130FB00B4313705378DB09FCD1144B00229A7055
S1130FC05A605A619A61DA611A1C5378DB09FCD1C0
S1130FD0051C0E4A117802330B4313700C4C0D4B55
S1130FE063600023A36004200B4B984704200B4B41
S1130FF09847211D04200A4B98470420094B984721
S11310002560002001E01120404238BD0018004056
S11310107C000020B90E0000F5080000250900003E
S1131020510900003D09000080225200284B9A60BB
S11310301A1C5378DB09FCD1254B832252025A60D7
S11310400222FF329A601A1C5378DB09FCD1204B30
S1131050204A5A60812252009A601A1C5378DB0994
S1131060FCD11B4B1C4A5A600422FF329A601A1CA2
S11310705378DB09FCD1164B184A5A60822252007D
S11310809A601A1C5378DB09FCD1114B144A5A603C
S11310900622FF329A601A1C5378DB09FCD10C4BF0
S11310A0104A5A60832252009A601A1C5378DB0952
S11310B0FCD1074B0C4A5A600822FF329A601A1C72
S11310C05378DB09FCD1094A014B5A607047C0468A
S11310D0000C004001060100020611000303010098
S11310E004060100050601000606010007060100CA
S11310F0012816D0022816D00223032814D0013365
S11311000A4A904210D00133094A90420CD001336C
S1131110084A904208D00133074A904204D0133B56
S113112002E0002300E00123181C70470020004166
S11311300040004100480041005000418223DB058B
S1131140984214D00C4B984213D002230B4A90427D
S113115010D001330A4A90420CD00133094A90421C
S113116008D00133084A904204D0123B02E0002325
S113117000E00123181C704700200041004000419A
S113118000440041004800410050004108B50B04F0
S11311909B0E012813D0002804D0022817D003285E
S11311A022D029E0081C174B9847002829DB164950
S11311B04B6901228240101C1843486121E0124807
S11311C08269012199400B1C1343836119E0081CB7
S11311D00E4B9847002814DB0B49CB69012282404F
S11311E0101C1843C8610CE00748026A01219940A9
S11311F00B1C1343036204E000200549AF22054B96
S1131200984708BDF1100000000400403D110000A3
S11312100C330000C5300000064B1A7AD2B21A72A1
S11312205A7AD2B25A729A7AD2B29A72DA7AD2B21A
S1131230DA7270470004004008B5012A18D0002A69
S113124002D0022A26D039E0C001C023DB05C3182E
S113125059600B041B0C8022D20513431A4A94468E
S113126060448362090CC0231B06194381622AE08F
S1131270C001C023DB05C31859600B041B0C134ABF
S11312801343114A944660448362090C104B19437A
S1131290816218E0C001C023DB05C31899600B0408
S11312A01B0C8022D2051343074A94466044836290
S11312B0090CC0231B061943816204E00020054980
S11312C05322054B984708BD0044004100000240EA
S11312D0000002C02C330000C5300000002A06D0F4
S11312E0C001C023DB059C466044816104E0C00169
S11312F0024B9C46604441607047C0461000006049
S113130010B582B0041C01A80B4B9847E301C0221E
S1131310D2059C58094A9A18126AA243C021C905E9
S11313208C4663441B691C40144301A8044B984732
S1131330201C02B010BDC046B92700000044004183
S1131340C927000010B5012A0ED0002A02D0022AB3
S11313501BD02BE0C0010818174B9C46604403784F
S113136004229343037026E001238B40C001C02272
S1131370D2058418636008180F4A944660440178C3
S113138004220A430270A36115E001228A40C001CD
S1131390C023DB05C3185A60081807498C4660440B
S11313A004780421214301705A6104E000200349B8
S11313B09922034B984710BD404400412C33000050
S11313C0C530000070B54209C0B21F2303401E1C83
S11313D04B1C0BD1FF231A40D201B318184A944670
S11313E063441A7802318A431A7027E0FF231340BA
S11313F0DA01B218124CA446624414780125AC43B5
S11314002C431470C2070DD57208DB01D3180D4AA2
S11314109446634418780F22024009011143C9B26B
S113142019700BE07208DB01D318064A9446634432
S11314301A780F20824301401143197070BDC046D1
S1131440404400413044004110B5041C1B4BC318F8
S11314509B0ADBB2012B2AD10122E3691A42FCD197
S11314600322E3691A42FCD123689B071CD401229E
S1131470E3691A42FCD12268012313432360012249
S1131480E3691A42FCD10322E3691A42FCD10C4BF2
S11314902360C0239B0263600A4BA3810023A373D0
S11314A03022A354002008E01120404205E000202F
S11314B00549064A064B9847CEE710BD00F8FFBD24
S11314C00400104015FBFFFF74330000920200007B
S11314D0C530000038B5051C0C1C431E9841C0B231
S11314E00449C522044B98472C60201C034B9847A1
S11314F038BDC04674330000C530000049140000F4
S1131500036889B2198570470368188DC0B27047A3
S11315100368187E012318407047C0460368187E8C
S11315204007C00F7047C04670B5061C0C1C4F4BDB
S1131530CB189B0ADBB2002B00D085E0002804D036
S1131540002906D14A4D143501E0494D14350020D7
S113155002E0474D143501204649474A474B984716
S1131560002D63D00122E3691A42FCD10322E3690E
S11315701A42FCD123689B075BD40122E3691A4217
S1131580FCD122680123134323600122E3691A4238
S1131590FCD134601C232A681340082B1ED1201C64
S11315A0431E9841C0B23349354A344B98473549B4
S11315B02B6819400322E3691A42FCD12160324BA3
S11315C06A681340314A13436360AB6863626A7BA1
S11315D03023E254E369002BFCD11BE0201C431EA2
S11315E09841C0B223492A4A244B984725492B687D
S11315F019400322E3691A42FCD12160254B6A6831
S1131600134080229202134363602B7B23736A7B13
S11316103023E25407236A681A405342534102229A
S1131620D31A3371EB89F38000201DE00D20404272
S11316301AE01120404217E000200E490E4A0F4BD9
S113164098470D2040420FE0002808D1F4E701201C
S11316500849094A094B98470D20404204E00025F7
S1131660002900D173E7F2E770BDC04600F8FFBD62
S11316704C33000074330000DF090000C530000063
S11316809C090000FCFEFFFFBFDDFDFF40020200DD
S113169084090000BF1DFDFFF0B55F4656464D4668
S11316A04446F0B483B081460E1C04680B68984627
S11316B04D6803799B46002803D0201C431E9841A3
S11316C000E000203349344A344B9847E3695B0710
S11316D04BD10322E3691A42FCD123689B0747D507
S11316E00022002004239C467F210196237EDBB246
S11316F067461F423FD0A76A002D08D02F705E4670
S1131700012E01D8013502E03F0A6F700235013223
S113171018E04E46F78801261E4213D04646002E96
S11317200ED037785E46012E03D80126B246D04447
S113173006E046467678360237430226B246D0445F
S11317400130A7628B4319D001235B426383813349
S113175023761320404201E09342C7D80322237E1C
S11317601342FCD0032323760DE0042040420AE018
S11317701420404207E08242E4D3CAE7019B9B68FD
S11317809842E9D2B2E703B03CBC90469946A246DF
S1131790AB46F0BD743300005A0B0000C5300000A6
S11317A0114B1A6A196A890F8907022008430F49E5
S11317B00A4002431A629A695202520E11040C48FA
S11317C0014399611F210A401A77996980220A43CB
S11317D09A61191C0822CB681A42FCD0024A116A89
S11317E080230B4313627047000800400000FF0F82
S11317F00E030000024A936902218B4393617047F0
S11318000008004008B5C3689A7BD20703D50122BB
S11318109A730368984708BDF8B5071C0D1C394B2B
S1131820CE18B60AF6B2002E62D10024FD60012063
S113183035499522354B9847EB7BDB09FCD12B8846
S11318409B0752D42A88012313432B80EB7BDB09AB
S1131850FCD164B2A3001B199B002D4AD3185A88EB
S11318602A8019792972DB886B810C231340082B99
S113187009D1A3001C19A400254B1B19DB68AB611B
S11318800023EB611BE0002B09D1A3001C19A40069
S11318901F4B1B199B892B8300236B830FE0042BA5
S11318A00DD11B4BA1000A1992009A18127B2A76BB
S11318B000226A760C19A4001B191B7A2B750123CC
S11318C06B73144B7B60BF601236F6B2301C124B44
S11318D09847301C114B9847391D301C104B9847C2
S11318E0301C104B984700200AE01120404207E0CA
S11318F000200549AA225200044B9847FF2495E78B
S1131900F8BDC04600D4FFBDAC330000C5300000B4
S11319109833000005180000F508000025090000B0
S1131920510900003D090000C268118802230B43DD
S113193013807047C26813881B079B0F022B01D1C9
S113194091610DE013881B079B0F02D189B21183AB
S113195006E013881B079B0F012B01D1C9B2117537
S11319607047C046C36818888007C00F7047C046D8
S11319700020704708B5C068044B9C466044800A48
S11319801230C0B2024B984708BDC04600D4FFBD18
S11319900D09000070B5837C0F221340C17C083A06
S11319A00A40012A0BD05A0119498C46624410217D
S11319B0D1715B01174A94466344197027E04A06C3
S11319C00ED5C27C40218A43C2745A01124CA446EB
S11319D0624480258224640015550624FF34115581
S11319E0C27C08218A43C2740C4C5A01A1180025F8
S11319F08D728D76131C06498C4663446F21D97110
S1131A00044B9C4662441170807C236F984770BDE0
S1131A10005100410851004100500041880000205D
S1131A200020704710B5847CFF2C0CD0C37C5B066F
S1131A3009D5031CC27C40208243DA749A68024BA5
S1131A409B6F201C984710BD8800002008B52023F8
S1131A508B40D9B2837C0F2213405B01034A944626
S1131A60634419700121024B984708BD0851004195
S1131A70251A0000F0B583B0071C0E1C151C847CCD
S1131A8001A816490222164B9847FF2C23D0FB7C51
S1131A905B0620D50F232340002E06D05A0111499E
S1131AA08C4662448021117105E05A010D498C462F
S1131AB062444021517101AA915D5A01094884464A
S1131AC06244D1715B01084A944663441970381C1E
S1131AD0291C064B984703B0F0BDC046CC33000028
S1131AE0D93100000051004108510041251A00007D
S1131AF0F0B583B0061C0D1C837C0F241C4001A888
S1131B00394904310222394B984763013848C018D7
S1131B10002D07D0231C08335B01364A9A5C520619
S1131B20520F06E0231C08335B01324A9B5C0722F8
S1131B301A40F77C29014318997AC9B2022A19D1AB
S1131B40CA0717D59A7A01218A439A7201AB5A5D62
S1131B50630129498C466344DA716401274B9C462E
S1131B6064442270691E8D41E9B2301C0422244B66
S1131B70984736E08A0720D59A7A02218A439A72D6
S1131B8001AA515D63011C4884466344D971535DC5
S1131B9064011A4A94466444237007233B40012B92
S1131BA01FD1F37C5B061CD5F17CC909A94218D06E
S1131BB0301C0022124B984713E063005B191B0191
S1131BC00B4AD31800229A7201AA515D63010A4894
S1131BD084466344D971535D6401084A944664445D
S1131BE0237003B0F0BDC046CC330000D9310000EF
S1131BF0880000200050004100510041085100417C
S1131C00751A0000F0B5474680B4051C0F1C837C90
S1131C100F241C40002900D1BAE06301614AD318A3
S1131C205A699204920C038A5F498B4200D19AE06C
S1131C30013B98B2EB7C07210B40013B5E425E41C5
S1131C40F3B29846002F05D0630158498C4663448B
S1131C500221D971AB68D118A9606B68994233D25B
S1131C605B1A9BB2EA7C920612D52A8A1E1C934206
S1131C7000D9161CB6B22B689C466144E868321C35
S1131C804B4B9847EA6863014649CB181A610DE04B
S1131C901E1C80229201934201D9464B1E88B6B283
S1131CA02B68591863013F4AD318196162013D4BEF
S1131CB09B18F2B25E69B60BB60316435E615969AE
S1131CC03D4A0A405A613BE0EB7CDB060FD5EB7CD6
S1131CD010229343EB746201324B9B185A69920BA6
S1131CE092035A615969344A0A405A6128E04346CA
S1131CF0002B06D06401314B9C4664444B23237073
S1131D0005E064012D4B9C4664444A232370298AD0
S1131D10131C034099420ED1EB7C40229343EB7495
S1131D20A87C204B5B6FA9689847002836D1EA7CD1
S1131D3040231343EB74281C0021214B98472DE0CA
S1131D40002F09D14E224346002B00D1043A6301EF
S1131D501A498C4663445A706401144B9C4664448B
S1131D60802363711AE0C17C07230B40013B584276
S1131D705841C3B298460C4866E7EA7C07231340EF
S1131D80013B59425941CBB298460748002261E7CA
S1131D90038A054A9342F0D0002249E704BC9046E6
S1131DA0F0BDC04688000020FF0300000051004140
S1131DB0D9310000CA330000FF3F00F00851004150
S1131DC0251A0000F8B55F4656464D464446F0B421
S1131DD0041C8946837C0F251D4000290FD06B010C
S1131DE0804AD3185A681201920C92465B689B048D
S1131DF09B0C9B46078A7C4A974208D1C2E0078A1B
S1131E00794B9F4200D1D1E000239B469A46013F83
S1131E10BFB25B463B409846E37C07261E40013E2A
S1131E2072427241D6B24B46002B05D06B016F4A09
S1131E30944663440122DA71E37C9B060FD5636800
S1131E40002B0FD0A268216888189B1A424699B2C9
S1131E50884500D91A1C92B2E168654B98476268BC
S1131E60002A1AD1E37CDB0600D49BE0E37C102239
S1131E70934320221343E3745A4A6B01E168995057
S1131E80D318227C910358685A4A02400A435A6084
S1131E905A68920B92035A605CE04B46002B0AD0BE
S1131EA0238A434507D9E37C10229343E374A36850
S1131EB05B44A3603AE0A3685344A3609A4235D9D3
S1131EC0D21A92B2E17C89060AD5218A131C8A426D
S1131ED000D90B1C9AB2E0686B014249585016E0D5
S1131EE0218A8A4205D9802189018A4208D8BA43C5
S1131EF008E08A4206D2E07C20210143E17401E03B
S1131F00802292012168CB18690136480B5069017F
S1131F10344B5918D3B29A034868364B03401343E1
S1131F204B604B689B0B9B034B6013E0002E06D069
S1131F306D01314B9C4665442D232B7005E06D01EA
S1131F402D4B9C46654425232B70201C00212B4BD4
S1131F50984741E04B46002B0DD12522002E05D099
S1131F606B01204AD31800229A762D326B01224944
S1131F708C4663445A706D011C4B9C466544402357
S1131F802B7129E09B059B0D9846C67C07231E40B8
S1131F90013E72427241D6B2134F47E7A3685344DD
S1131FA0A360C3E74B46002B11D1F7E7C37C072698
S1131FB01E40013E72427241D6B2002398460A4F37
S1131FC09B469A4638E7A3685344A360AEE7238A46
S1131FD0434500D967E7F6E73CBC90469946A246DC
S1131FE0AB46F8BD88000020FF030000005100410B
S1131FF0D9310000FF3F00F008510041251A0000CC
S1132000F0B5474680B40D4D2C1C7C34A6239B00B0
S11320109C4665440A4B9846FF270026201C032152
S1132020C047A774E6741434AC42F7D103480021C6
S11320306022044B984704BC9046F0BD8800002001
S1132040251A0000EB310000F0B5474680B4824BFE
S11320501E8CB6B2002E72D11A1C9B8B128B1340AD
S11320605A0706D504227C4B9A837C4B9B6E984777
S1132070EEE09A0522D5784B794A9A839A82923A6D
S1132080FF3A1A83754B1B89613A1340032B07D01F
S1132090724B1B8D13400021032B0AD1023B00E03D
S11320A000235B016D4AD31819894904490D0022A4
S11320B01A816A4BDB6E03209847C9E01A0608D5DB
S11320C08022654B9A83654BDB6E0520002198477F
S11320D0BEE070221A421BD05F4B9A839A82604AF8
S11320E01A83604B9B8C9B0607D45E49323AFF3AB5
S11320F0CB681340D02BFBD104E05A491022CB68A3
S11321001A42FCD0554BDB6E0220002198479FE019
S11321101A0712D5504B0021802252009954F83AE4
S11321209A8368329A824E4A1A834F4B98474B4B94
S1132130DB6E0120002198478AE0DB0705D4474C79
S11321407C340025454B98460CE0434B444A9A8323
S11321509A82923AFF3A1A83404BDB6E04200021A4
S1132160984775E0201CA37CFF2B6DD00F210B40FA
S11321700E3999400E4267D059013C4FBC46614428
S1132180C9795B013A4FBC4663445B780B405BD032
S1132190A9004A19920042447832D27D510610D4E3
S11321A0DA0602D5334B98474EE05A0603D501218F
S11321B0314B984748E09B0646D500212E4B984763
S11321C042E0D10920D0590603D501212A4B984772
S11321D03AE0190703D50121284B984734E09907C1
S11321E003D50121264B98472EE007210A40012AF6
S11321F02AD15A0703D50021204B984724E0DB0657
S113220022D51C4B98471FE0990603D500211A4B91
S1132210984719E0590703D50021184B984713E054
S1132220D90703D50121174B98470DE007210A4030
S1132230012A09D11A0703D50639104B984703E040
S1132240DB0601D50B4B9847013514341B2D89D17E
S113225004BC9046F0BDC0460050004188000020F8
S1132260010200000008004001200000005100416C
S113227008510041951900004D1A0000F11A0000A0
S1132280051C0000C51D000008B52B4901228B78F0
S11322901342FCD1284903228B781342FCD1264BEC
S11322A01B789B0745D4244901228B781342FCD127
S11322B0214A117801230B431370111C01228B78DE
S11322C01342FCD11D4B1E4A9A66DA661A675A6796
S11322D09A671C4B98471C4B1B685A0B1F200240E3
S11322E0990C01409B015B0F1F2A00D11A3A1F2948
S11322F000D10239072B00D1023B92010A431B0390
S113230013430D4A1385111C03228B781342FCD10D
S1132310094B04221A7009495962033A1A810B4B7A
S11323200B6600234B6660310720094B9847002059
S113233001E01120404208BD005000418800002007
S1132340211A0000012000002460800049200000C0
S113235051090000F0B50F240440C209002C06D036
S1132360231C002A00D0A31C022C01D995E00023D1
S1132370012922D110269640F6B2494D9900C81879
S113238080002818883080790F2404406001454F6C
S1132390BC466044467120209040C2B26401424869
S11323A0844664446270CB189B00EB188833D97957
S11323B008220A43DA71002071E0002959D19900FA
S11323C0C918890036484118883189790F2001409D
S11323D04D01364884466544832040002E5C102419
S11323E09440002026425AD0E4B20530FF302C54E9
S11323F0E438041C9440E4B249012B4EB4466144D1
S11324000C700821FF31695C9040014208D0C0B2D1
S11324100821FF31685401209040C2B203396A5444
S11324209A00D21892001E498A187832D27D072168
S11324300A40012A11D10632FF32A95C0020D63AA3
S113244011422CD19A00D3189B00154AD318883313
S1132450DA7908218A43DA7121E09A00D3189B00C3
S11324600F4AD3188833DA7908218A43DA710020B5
S113247015E09900CB189B000949CB1888339B7948
S11324800F210B405B0107498C4663449879102364
S113249093401840431E984101E012204042F0BD91
S11324A088000020005100410851004100500041C3
S11324B038B50F2318404301154AD3181A685B68CE
S11324C09B049D0C02281AD800291BD04001114BF3
S11324D0C41880235B00E35C112B16D10823FF335F
S11324E0E35C0020DB0612D5081C111C08220A4BF1
S11324F0984710220823FF33E254281C07E01220D7
S1132500404204E01220404201E01320404238BD22
S11325108800002000500041D9310000F0B54F463A
S11325204646C0B483B0067A0F223240F609002A28
S113253000D1C2E0131C002E00D0931C1D1C654961
S11325409F00FC18A4000C197C34FB189B00CB18CA
S113255088339B8860498B4203D105E05D4C7C3411
S11325600025013B9BB200E05B4B41680B405F1EC2
S1132570BB41DFB2022A00D98DE0036880229205B4
S1132580934205D9C918554A914201D89B070BD0EB
S1132590AB005B199B004F4AD31880339B68002B18
S11325A07CD00123984601E000239846002E0AD1EE
S11325B0002F08D0AB005B199B00464AD318803328
S11325C09B68002B6DD08146AB005B199B00414A90
S11325D0D3187833DB7D1B0704D501A8404B9847FB
S11325E0022072E001A83F4B9847AB005B199B00A7
S11325F0384AD3187833DB7D5B0604D501A8384B01
S11326009847012061E001A8354B9847AB005B195E
S11326109B00304AD3181A1C49460968D967783296
S11326204946496891600832002151608833F001BD
S1132630DA797F310A40414649010243202082432E
S11326400A43DA714B465B7A0022002B01D0013237
S11326507A402048A9004B199B00C31888330127EE
S11326603A401201DB790F37BB434D19AD004519D0
S113267088351A4340231A43EA71002E05D0201CE2
S11326800021194B984700201FE0201C0021174B04
S11326909847002019E01220404216E013204042DF
S11326A013E01220404210E041688B055F1EBB41DD
S11326B0DFB2084C7C3400255FE7064B60339B8D0A
S11326C005498B4200D049E7EEE703B00CBC9046C5
S11326D09946F0BD88000020FF030000FF7F002022
S11326E0C9270000B9270000051C0000C51D000013
S11326F0002900D10749002802D1074B196708E0D7
S1132700012802D1044B596703E0022801D1024B8E
S113271099677047211A00008800002010B5041E34
S113272003D00068431E984100E0002013495A2258
S1132730134B98472268D379DB09FCD11378DB0962
S113274016D1D379DB09FCD113789B0713D4D37941
S1132750DB09FCD1137804218B4313702268D379ED
S1132760DB09FCD153780F218B435370002004E024
S11327701120404201E01120404210BDF833000016
S1132780C530000038B5041C0D1C002803D0081CFB
S1132790431E984100E0002004493B22044B984723
S11327A0201C291C034B984738BDC0461C3400002C
S11327B0C5300000C9080000EFF31083036072B64F
S11327C0BFF35F8F7047C046BFF35F8F036883F327
S11327D01088704738B5041C0D1C002803D0081C51
S11327E0431E984100E0002006493C22064B9847CE
S11327F0201C291C054B9847002802D10023636044
S1132800A36038BD38340000C5300000290A000038
S1132810F8B501240025FF270D4E63195B10D9B2CA
S11328203B40DA00B2185268824206D1DB00084A03
S11328309B58002B06D0984708E0824202D201310F
S1132840CDB201E00139CCB2AC42E6D2F8BDC0460B
S1132850E003002008B50248024B984708BDC04673
S113286011280000890F000008B58368002B00D0F0
S1132870984708BD08B5C368002B00D0984708BD29
S113288038B5164B1B78002B22D1144D01332B7015
S11328902C1D201C124B98476868211D0122114BE6
S11328A09847002817DB0D4CA0680F4B83600F4B33
S11328B0C36014300E4B9847A06810300D4B9847F6
S11328C06068A168002200230B4CA047002004E0AC
S11328D01220404201E01C20404238BDE8030020A1
S11328E0390B00004D0C0000692800007528000019
S11328F0A10E0000AD0E0000950D000038B5041CBB
S11329000D1C002803D0081C431E984100E0002041
S113291009494622094B98472560201C291C084B6D
S11329209847002806DB074B2382074BE360074BDD
S1132930A360002038BDC04654340000C5300000F8
S1132940291500000080FFFFD1290000952900000F
S113295030B587B0051C0C1C002803D0081C431E8E
S1132960984100E000200849CA22084B9847236890
S1132970039363680493A36801930593281C03A934
S1132980034B984707B030BD54340000C5300000F5
S11329909916000070B584B0041C0E1C151C431E4F
S11329A09841C0B20749B822074B984700230293C5
S11329B001960395201C083801A9044B984704B0DC
S11329C070BDC04654340000C530000051290000D9
S11329D070B584B0041C0E1C151C431E9841C0B273
S11329E007499A22074B98470296002301930395BF
S11329F0201C083801A9044B984704B070BDC04698
S1132A0054340000C530000051290000F0B5474699
S1132A1080B480460768002F02D1154B984724E004
S1132A208E683C1C002500E01C1C6368934204D89B
S1132A30A068844663449B1A04E0A0688446634407
S1132A4001339B1AB34206D2002C0BD02368251CF9
S1132A50002BE9D106E0BC4203D14046044B984721
S1132A6003E02C1C201C034B984704BC9046F0BD8B
S1132A70F530000021310000F0B5474680B482B043
S1132A8045690369013398460361037EDB070BD470
S1132A90037E9B0708D4002D2CD043466A689B1AFA
S1132AA0AA68934207D225E0027E022313430376E9
S1132AB020E0251C06E0071C14239C46844463463E
S1132AC001930E4E0198B0472B7C012B06D143464F
S1132AD06B600198291C4246094B98477C69EB6856
S1132AE0281C9847002C05D0434662689B1AA268AC
S1132AF09342DED202B004BC9046F0BD29310000FE
S1132B000D2A000038B5041C0D1C002803D0081C35
S1132B10431E984100E0002006494922064B98478D
S1132B20201C291C054B984700232361044B236078
S1132B30002038BD70340000C530000019180000B2
S1132B40792A000010B5041C431E9841C0B20849FC
S1132B506122084B9847201C074B9847002804D152
S1132B60201C064B9847002001E01120404210BD74
S1132B7070340000C53000006519000029190000F8
S1132B8038B5041C0D1C431E9841C0B2044982226E
S1132B90044B9847201C291C034B9847002038BD40
S1132BA070340000C53000003519000070B582B0E3
S1132BB0041C0D1C002803D0081C431E984100E08F
S1132BC000201D498E221D4B9847227E012313436A
S1132BD02376261C1436301C291C194B98470028D0
S1132BE00BD0237E01229343237600201249933293
S1132BF0124B9847122040421CE023696B60301C42
S1132C00291C22690F4B9847237E01229343237684
S1132C10237E00209B070DD501A80B4B9847237EEC
S1132C20022293432376201C084B984701A8084BA3
S1132C309847002002B070BD70340000C530000019
S1132C40CD3000000D2A0000B927000075190000DE
S1132C50C9270000F8B54F464646C0B4051C0F1CF2
S1132C609046002805D0002905D0101C431E984129
S1132C7002E0002000E000200F49892252000F4B9F
S1132C80984708350E4E2C1C281CB0470028FAD053
S1132C9000260C4B99460A4DB95D201CC847201CE0
S1132CA0A8470028FBD001364645F5D3301C0CBCA0
S1132CB090469946F8BDC04688340000C5300000EF
S1132CC01115000001150000F0B5474680B4041C3E
S1132CD00F1C9046002805D0002905D0101C431E67
S1132CE0984102E0002000E000200B492E22FF3230
S1132CF00A4B984700260A4D0834201CA847002890
S1132D00FBD0201C074B9847B85501364645F4D3F1
S1132D10301C04BC9046F0BD88340000C53000006F
S1132D201D1500000915000038B5041C0D1C0028F1
S1132D3003D0081C431E984100E0002007494222AA
S1132D40074B9847201C0830291C064B984700283D
S1132D5003D1054B6360054B236038BD8834000004
S1132D60C5300000D5140000C92C0000552C00000B
S1132D7030B50E4B5978814207D104E020325178A6
S1132D80814206D10FE000230DE0084A00230F25FD
S1132D9005401478002C01D18D4204D00133DBB2FC
S1132DA00D2BEBD1F23358B230BDC04600040020E5
S1132DB00020704738B5041C0D1C094B984743018B
S1132DC0084AD3189A780023032A07D14001054BF7
S1132DD018188369201C291C9847031C181C38BD2B
S1132DE0712D000000040020F0B585B0051C0F1CF7
S1132DF0161C4E4B9847041C002F52D14C4B4201D9
S1132E0099180020C870D35C002B44D10A7B8B78BE
S1132E10032B34D1D50948780A1C0C32CB69012123
S1132E209847002817D06301414AD31805229A70A5
S1132E30033ADA70002D04D064013D4B1C1960780C
S1132E4005E064013A4B1C19607880231843012182
S1132E50384B984767E06401354B1C190423A37071
S1132E606378002201920292002D01D18032134333
S1132E7001A80372012343722F4B984753E02C4A55
S1132E806401151968782A1C0C320021EB699847F3
S1132E900223AB7047E06301254AD31801229A70DC
S1132EA039E0012F14D1224B420199180220C87035
S1132EB0D35C002B06D102228A70281C00211D4BF2
S1132EC0984728E063011A4AD31805229A7022E031
S1132ED0022F10D1164B420199180420C870D35CFC
S1132EE0002B02D102238B701DE06301104AD3181A
S1132EF001229A700FE0032F07D143010C4AD31823
S1132F0000229A700532DA7005E04301084AD318AA
S1132F1006229A70DA706401054B1C19E178E369A2
S1132F20281C321C984705B0F0BDC046712D000026
S1132F3000040020552300001D250000F0B547467D
S1132F4080B4051C1D4B9847061C43011C4CE41817
S1132F500C34281C211C1B4B9847C0B2082808D0ED
S1132F60281C0121184CA047802028430121A04798
S1132F7020E0281C0021144B9846984780272F43B3
S1132F80381C0021C04773010D4AD31801229A70DE
S1132F905B69281C211C984700280BD17601084B3B
S1132FA09E190523B370281C0121074CA047381C27
S1132FB00121A04704BC9046F0BDC046712D00001D
S1132FC000040020B12400005523000010B5144B68
S1132FD09847002822DB134C201C0021D0225200E9
S1132FE0114B9847631C201CA230FF30FF240F4A6A
S1132FF01C70191C13310A6004310A6004310A6020
S113300020338342F4D1002009490A4CA04701200F
S11330100949A04702200949A047002010BDC04625
S11330208922000000040020EB310000B12D0000D3
S11330303D2F0000F1260000B52D0000E92D000011
S1133040F8B51C4B98470020102102221A4CA047C7
S1133050002010210122194DA8470020202102221E
S1133060A047002020210122A84700200821022295
S1133070A047002008210122A84780277F000020C4
S1133080391C0222A0478026F6000020311C0222AF
S1133090A0470020802189000122A0470020391C7C
S11330A00022A8470020311C0022A847044B98475F
S11330B0FEE7C046C506000039120000DD1200001C
S11330C06D060000002800D100BE70470368002B85
S11330D009D08B4202D108E0994208D01B68002B2A
S11330E0FAD1002004E0002002E0012000E00120E9
S11330F07047C04638B5041C0D1C064B9847012385
S11331005840C0B204494522044B984723682B60B9
S1133110256038BDCD300000A4340000C530000067
S113312003680B60016070470368002B01D01A68C4
S11331300260181C7047C04608B50023002802D05E
S113314000F004F8431C181C08BDC0464142084066
S11331501C2101231B04984201D3000C10391B0AC3
S1133160984201D3000A08391B09984201D3000987
S1133170043902A2105C401A7047C0461B1C1D1D76
S11331801E1E1E1E1F1F1F1F1F1F1F1F0E4B70B54D
S113319000251E1C0D4CE41AA410A54204D0AB005B
S11331A0F35898470135F8E700F08AF9084B0025F1
S11331B01E1C084CE41AA410A54204D0AB00F3581A
S11331C098470135F8E770BDCC340000CC340000DA
S11331D0CC340000D0340000002310B5934203D057
S11331E0CC5CC4540133F9E710BD031C821893422C
S11331F002D019700133FAE77047000048656C6C1F
S11332006F20576F726C6421000000002E2E2F680F
S1133210616C2F696E636C7564652F68616C5F7790
S113322064742E68000000002E2E2F68616C2F68D5
S1133230706C2F61632F68706C5F6163315F7631EE
S113324031315F626173652E630000002E2E2F689A
S1133250616C2F68706C2F636F72652F68706C5F80
S1133260636F72655F6D30706C75735F62617365F7
S11332702E6300002E2E2F68616C2F68706C2F64F3
S113328061632F68706C5F646163315F76313130E4
S11332902E6300002E2E2F68616C2F68706C2F64D3
S11332A061632F68706C5F646163315F76313031C4
S11332B05F626173652E696E630000002E2E2F68B5
S11332C0616C2F68706C2F646D61632F68706C5F24
S11332D0646D61635F763130305F626173652E6364
S11332E000000000FF000000FFFFFFFF2E2E2F68EC
S11332F0616C2F68706C2F6569632F68706C5F65F3
S11333006963315F76313031612E63002E2E2F6870
S1133310616C2F68706C2F706D2F68706C5F706DAE
S1133320315F76323031612E630000002E2E2F681B
S1133330616C2F68706C2F706F72742F68706C5F83
S1133340706F72745F763130302E630000000000BD
S11333500000000000000000000000000000000069
S11333600C00200000000200000000004F00FF01DC
S1133370000000002E2E2F68616C2F68706C2F7374
S11333806572636F6D2F68706C5F736572636F6DC8
S11333905F763230302E63000300680300000000C3
S11333A000000000E8030000000000002E2E2F683B
S11333B0616C2F68706C2F74632F68706C5F74631A
S11333C0315F763132312E6300000020254A00003F
S11333D004080000A00300200000000040000000DA
S11333E060030020000000004000000020030020D3
S11333F000000000400000002E2E2F68616C2F6832
S1133400706C2F7764742F68706C5F776474315FAD
S1133410763230305F626173652E63002E2E2F6822
S1133420616C2F7372632F68616C5F61635F737982
S11334306E632E63000000002E2E2F68616C2F73C4
S113344072632F68616C5F6461635F73796E632E6E
S1133450630000002E2E2F68616C2F7372632F6837
S1133460616C5F7370695F6D5F73796E632E630067
S11334702E2E2F68616C2F7372632F68616C5F74DA
S1133480696D65722E6300002E2E2F68616C2F7398
S113349072632F68616C5F75736172745F73796EA8
S11334A0632E63002E2E2F7574696C732F737263F1
S11334B02F7574696C735F6C6973742E63000000FC
S11334C0F8B5C046F8BC08BC9E467047DD00000055
S11334D0F8B5C046F8BC08BC9E467047B50000006D
S11334E048656C6C6F20576F726C6421010000009A
S11334F001000000010003000001010000000000C1
S9030000FC
